{
  "contractName": "Card",
  "abi": [
    {
      "constant": false,
      "inputs": [
        {
          "name": "key",
          "type": "string"
        },
        {
          "name": "value",
          "type": "string"
        }
      ],
      "name": "setData",
      "outputs": [],
      "payable": false,
      "stateMutability": "nonpayable",
      "type": "function"
    },
    {
      "constant": true,
      "inputs": [
        {
          "name": "key",
          "type": "string"
        }
      ],
      "name": "getData",
      "outputs": [
        {
          "name": "",
          "type": "string"
        }
      ],
      "payable": false,
      "stateMutability": "view",
      "type": "function"
    }
  ],
  "bytecode": "0x6060604052341561000f57600080fd5b6104658061001e6000396000f30060606040526004361061004c576000357c0100000000000000000000000000000000000000000000000000000000900463ffffffff1680638ca3c55314610051578063ae55c888146100f1575b600080fd5b341561005c57600080fd5b6100ef600480803590602001908201803590602001908080601f0160208091040260200160405190810160405280939291908181526020018383808284378201915050505050509190803590602001908201803590602001908080601f016020809104026020016040519081016040528093929190818152602001838380828437820191505050505050919050506101c7565b005b34156100fc57600080fd5b61014c600480803590602001908201803590602001908080601f0160208091040260200160405190810160405280939291908181526020018383808284378201915050505050509190505061025c565b6040518080602001828103825283818151815260200191508051906020019080838360005b8381101561018c578082015181840152602081019050610171565b50505050905090810190601f1680156101b95780820380516001836020036101000a031916815260200191505b509250505060405180910390f35b80600080846040518082805190602001908083835b60208310151561020157805182526020820191506020810190506020830392506101dc565b6001836020036101000a0380198251168184511680821785525050505050509050019150506040518091039020600019166000191681526020019081526020016000209080519060200190610257929190610380565b505050565b610264610400565b600080836040518082805190602001908083835b60208310151561029d5780518252602082019150602081019050602083039250610278565b6001836020036101000a0380198251168184511680821785525050505050509050019150506040518091039020600019166000191681526020019081526020016000208054600181600116156101000203166002900480601f0160208091040260200160405190810160405280929190818152602001828054600181600116156101000203166002900480156103745780601f1061034957610100808354040283529160200191610374565b820191906000526020600020905b81548152906001019060200180831161035757829003601f168201915b50505050509050919050565b828054600181600116156101000203166002900490600052602060002090601f016020900481019282601f106103c157805160ff19168380011785556103ef565b828001600101855582156103ef579182015b828111156103ee5782518255916020019190600101906103d3565b5b5090506103fc9190610414565b5090565b602060405190810160405280600081525090565b61043691905b8082111561043257600081600090555060010161041a565b5090565b905600a165627a7a723058208b577aa87859decfad2bd5715f261ef768032c444b5d491de3335e33196552540029",
  "source": "pragma solidity ^0.4.18;\r\n\r\ncontract Card {\r\n\tmapping (bytes32 => string) data;\r\n\r\n\tfunction setData(string key, string value) public {\r\n\t\tdata[keccak256(key)] = value;\r\n\t}\r\n\r\n\tfunction getData(string key) public constant returns (string) {\r\n\t\treturn data[keccak256(key)];\r\n\t}\r\n}",
  "sourcePath": "C:\\Users\\Дима\\Vvod+Mapping\\contracts\\Card.sol",
  "compiler": {
    "name": "solc",
    "version": "0.4.18+commit.9cf6e910.Emscripten.clang"
  },
  "schemaVersion": "1.0.1",
  "updatedAt": "2017-12-15T13:19:52.480Z"
}